:020000040800F2
:10000000C88E002045010008F5110008FB1000080B
:10001000F111000851090008395C000800000000D7
:1000200000000000000000000000000099550008DA
:100030007F0E000800000000CF040008A122000885
:100040005F0100085F0100085F0100085F01000810
:100050005F0100085F0100085F0100085F01000800
:100060005F0100085F0100085F0100085F010008F0
:100070005F0100085F010008490C00085F010008EB
:100080005F0100085F0100085F0100085F010008D0
:100090005F0100085F0100085F0100085F010008C0
:1000A0005F0100085F0100085F0100085F010008B0
:1000B000555900085F0100085F0100085F01000852
:1000C0005F0100085F0100085F0100085F01000890
:1000D000655400082D5A00085F0100085F01000800
:1000E0005F0100085F0100085F0100085F01000870
:1000F0005F0100085F0100085F0100085F01000860
:100100005F010008E14700085F0100085F01000887
:100110005F0100085F0100085F0100085F0100083F
:100120005F0100085F0100085F0100085F0100082F
:10013000DFF80CD000F01CF900480047B97A00083D
:10014000C88E00200648804706480047FEE7FEE7C5
:10015000FEE7FEE7FEE7FEE7FEE7FEE7FEE7FEE777
:10016000055900083101000872B6704762B6704741
:10017000EFF3108072B6704780F31088704730BF7D
:10018000704720BF7047B0FA80F0704790FAA0F037
:10019000B0FA80F0704790FAA0F070472DE9F05F58
:1001A0000546002092469B468846064681464024E6
:1001B0001BE0284641464746224600F091F8534648
:1001C0005A46C01A914110D311461846224600F0F3
:1001D00078F82D1A67EB01084F46224601200021CE
:1001E00000F06FF817EB00094E41201EA4F1010446
:1001F000DFDC484631462A464346BDE8F09F40EAE8
:1002000001039B0703D009E008C9121F08C0042A94
:10021000FAD203E011F8013B00F8013B521EF9D27B
:10022000704730B505462A460B4612F8010B13F805
:10023000014B08B1A042F8D01CB1002802D06D1CBF
:10024000F1E7284630BD10B5002200E0521C835C67
:100250008C5CA34201D1002BF8D1D8B2E1B2401A94
:1002600010BD000070B50F4D00B92868002412E0E1
:100270000A4602E09E4203D0521C1378002BF9D1AB
:10028000DAB2224305D02BB124B1002100F8011BC2
:1002900004E00446401C0678002EE9D12860204680
:1002A00070BD00007001002070B5064605F0EAFC44
:1002B000046805460A220021304600F021F82C602F
:1002C00070BD202A04DB203A00FA02F100207047BA
:1002D0009140C2F1200320FA03F319439040704784
:1002E000202A04DB203A21FA02F00021704721FA8B
:1002F00002F3D040C2F120029140084319467047F2
:100300002DE9F04791460F4680460446002614F832
:10031000015B2DB100F03EF80068405DC007F6D1EA
:100320002B2D02D02D2D18D0641E4A46394620466A
:1003300000F034F827B13968A14201D1C7F8008034
:1003400071054FF002040BD54042002803DD05F093
:1003500099FC0460A007BDE8F08746F48066E4E7F6
:100360000028F8DA05F08EFC04606FF00040F2E738
:10037000064C074D06E0E06840F0010394E80700F2
:1003800098471034AC42F6D3FFF7D6FEC8320308C4
:10039000E832030800487047C43203082DE9F05FD3
:1003A00082460078002715468B460AF10104B946BB
:1003B000302801D09DB113E014F8010B01277828F3
:1003C00003D0582801D045B10AE00DB1102D07D156
:1003D0000027102514F8010B02E0082500E00A258B
:1003E0000026B0460EE005FB080005FB06F10127DC
:1003F00001EB10461FFA80F8B6F5803F00D3B946EE
:1004000014F8010B294600F018F80028EBDABBF1CC
:10041000000F05D00FB1641E00E05446CBF8004039
:10042000B9F1000F06D005F02DFC02210160C81EB5
:10043000BDE8F09F48EA0640FAE73A2800D2303893
:1004400020F02002412A01D3A2F13700884201D3D3
:100450004FF0FF30704770B58C1810F8015B15F045
:10046000070301D110F8013B2A1106D110F8012B26
:1004700003E010F8016B01F8016B5B1EF9D12B074B
:1004800005D40023521E0DD401F8013BFAE710F801
:10049000013BCB1A921C03E013F8015B01F8015BEE
:1004A000521EF9D5A142D8D3002070BD18484FF094
:1004B000FF010170002080F309881648016881F36C
:1004C000088815484FF08051016062B6FEE772B6A9
:1004D000EFF3098028B1203880E8F00F0F49096850
:1004E000086000B50E4880475DF804EB0D480E49E2
:1004F0000A78027009480D490A680260106890E89D
:10050000F00F203080F309884EF0040E62B6704779
:1005100022ED00E0EC00002004ED00E0E40000200B
:100520009D1F00088E0000208F000020E8000020A2
:100530002DE9F0418AB0002405940C27294ACDE921
:10054000012709AD0326CDE9076501208021069426
:10055000CDE903100820009022482346224A23A117
:10056000C43801F077F9264B0594CDE90073CDE945
:100570000765022001023322CDE9022104902048C0
:10058000069400231F4A20A1C43801F063F9CDE985
:1005900006462248019005944FF480774FF01908E1
:1005A0000620CDE9028700901C480895049400239A
:1005B0001B4A1CA1C43801F04DF9CDE906461E487E
:1005C000019005940F20CDE9028700901A48089504
:1005D00004940023194A1AA1C43801F03BF90AB067
:1005E000BDE8F0818C09002055060008417070209C
:1005F0005461736B2047455420434D440000000074
:10060000500C002055080008417070205461736B35
:100610002053656E6420446174610000141500204D
:1006200029070008417070205461736B2053617674
:100630006520446174610000D8190020D5060008C7
:10064000417070205461736B20476574205573614D
:10065000676500001CB513A005F004FB0025184FCA
:10066000184C0126002101AB6A46084601F0EAFA5F
:100670003E601549207803F0EBFD40B2257000285C
:10068000F0D0012807D00228ECD101AA00210F48A0
:1006900001F09AFBE6E701AA00210D4801F094FB66
:1006A000E0E70000476574436F6D6D616E645461EF
:1006B000736B20437265617465640D0A000000006D
:1006C000100C0140140000207C01002014190020AF
:1006D0008C0B002008B50B4D0B4E012400226B46FD
:1006E0001146104601F0AEFA2C60002207A1064820
:1006F00006F030FC08A0F16805F0B4FA024806F0F4
:100700000EFCEBE7100C0140E0030020303A74656A
:1007100073742E6A7067000066696C6573697A6528
:10072000256C640D0A0000000EB51D49012008600B
:10073000002102A8CDE900100B460122084601F075
:10074000BFFC1849002006F0F5FB00281BD016A0BE
:1007500005F088FA08221AA11D4806F0FBFB0446A2
:100760001B4806F0DCFB94B1082C14D0214619A0DC
:1007700005F078FA002202AB1146104601F062FA49
:1007800004F00CFFF6E71FA005F06CFAE2E722A0E8
:1007900005F068FAEEE728A005F064FAEAE7000041
:1007A000100C0140B00100204661746673206D6F2B
:1007B000756E743A204661696C6564210D0A00000B
:1007C000303A64617461746573742E6461740000FE
:1007D000E00300204661696C656420746F206372D9
:1007E0006561746520646174612066696C652120AF
:1007F0004572726F7220636F6465A3BA25780D0A23
:10080000000000004661746673206D6F756E743A67
:10081000204F4B210D0A000053756363656564200A
:100820006372656174696E672064617461206669D2
:100830006C65210D0A000000446174612066696CDA
:100840006520616C726561647920657869737421D3
:100850000D0A000008B506A005F004FA00226B4658
:100860001146104601F0EEF904F0DCFEF6E7000058
:1008700053656E64446174615461736B20437265A7
:10088000617465640D0A000008B5482007F06CFD2E
:1008900000F034F800F05DF800F048F800F026F8B9
:1008A0000B490968B0FBF1F001F012FD00F0A1FC6A
:1008B000684600F065FF00F091F8FFF739FE05A0EB
:1008C00005F0D0F96946084801F0C4F808BD0000F9
:1008D000448500085374617274696E672075434FD4
:1008E000532E2E2E0D0A00000406002000B585B000
:1008F000684603F04DFE019805B000BD10B500F04C
:1009000023F800F045FC05F045F805F0C1F807F0C4
:1009100011F805F093F904F03DFD03F087FF012184
:10092000BDE81040402003F009BE000010B5FFF7FD
:10093000DDFF04490968B0FBF1F0BDE8104001F0AB
:10094000C7BC0000448500084FF4A06000F086BCDE
:10095000FEE710B500F08AF8BDE81040AFF3008064
:100960002DE9F041104E002737807780B760F7609F
:100970007761B76137610025FFF7FAFB80460024F5
:10098000776100F049F800F059F870690544641C7B
:10099000A4B2002CF4D035617761B7614046BDE860
:1009A000F041FFF7E9BB0000180000200349096986
:1009B000884201D9401A7047002070471800002073
:1009C00010B5FFF7D5FB04494C69FFF7D5FB20466E
:1009D000BDE81040FFF7EABF1800002010B5FFF790
:1009E000EFFF0446FFF7C4FB034A00215161FFF704
:1009F000C3FB204610BD00001800002010B5FFF713
:100A0000B7FB04498C69FFF7B7FB2046BDE81040EF
:100A1000FFF7CCBF1800002010B5074C2088401C01
:100A200020806088002802D100F046F8A06060882D
:100A3000401C608010BD00001800002010B50A4C5A
:100A40006088401E80B2608000280CD100F034F82D
:100A5000E060A168401A6169814200D26061A169C9
:100A6000814200D2A06110BD180000200249002080
:100A7000486000F009B800001800002001494860F3
:100A8000704700001800002010B50948016841F0C7
:100A900080710160074800214160016841F0010157
:100AA0000160FFF723FFBDE81040FFF7E7BF00003C
:100AB000FCED00E0001000E00148406870470000D5
:100AC000001000E070B500254FF4803400E0641E93
:100AD00024B1802003F068FE0028F8D02CB140F249
:100AE000FF5003F01BFE284670BD032070BD0000C0
:100AF0000548416B11F0450FFBD040F2FF51816377
:100B0000406900F0080070470080014010B50024E3
:100B10000E4A516B00E0516B11F0450FFBD04807B6
:100B200005D50324042003F0F9FD204610BDC807B5
:100B300005D00124012003F0F1FD204610BD40F254
:100B4000FF5003F0EBFD204610BD00000080014087
:100B500010B500240A4A516B00E0516B11F0450FAB
:100B6000FBD0480705D50324042003F0D7FD204619
:100B700010BD40F2FF5003F0D1FD204610BD000033
:100B80000080014070B506460C4600251C4A506B9B
:100B900000E0506B10F0450FFBD0410705D5032452
:100BA000042003F0BBFD204670BDC00705D0012422
:100BB000012003F0B3FD204670BD03F0EFFDB0420D
:100BC00001D0102070BD40F2FF5003F0A7FD0020BF
:100BD00003F0FCFD10F4604F03D0810405D5132011
:100BE00070BD000C2080284670BD410401D5102046
:100BF00070BD000401D50F2070BD284670BD0000F7
:100C00000080014010B500204FF480310D4B5A6B2D
:100C100001E0491E5A6B12F0450F01D10029F8D1AD
:100C200009B1510705D50324042003F077FD2046C0
:100C300010BD5106FCD50024402003F06FFD204676
:100C400010BD00000080014008B54FF4005000F0D6
:100C5000C9F801280CD00020064948704FF4C04064
:100C600000F018F86A460021034801F0ADF808BD0D
:100C70000120F1E71400002050140020C10002D52B
:100C80000249086070470249486070470404024006
:100C900000000240C10002D50249086070470249C5
:100CA000486070470404024000000240002904D05C
:100CB000016841F001010160704701684FF6FE7262
:100CC000114001607047000001684FF6FE7211404C
:100CD00001600021016041608160C1603649364A8F
:100CE0000839904204D1486840F00F0048607047CE
:100CF000314A1432904204D1486840F0F000486014
:100D000070472D4A2832904204D1486840F4706000
:100D100048607047284A3C32904204D1486840F409
:100D2000704048607047244A5032904204D148686D
:100D300040F47020486070471F4A6432904204D1EA
:100D4000486840F47000486070471B4A783290420F
:100D500004D1486840F0706048607047174A111F1E
:100D6000904204D1086840F00F0008607047134AB1
:100D70001432904204D1086840F0F00008607047D7
:100D80000E4A2832904204D1086840F4706008602E
:100D900070470A4A3C32904204D1086840F47040DF
:100DA00008607047054A50329042FAD1086840F412
:100DB00070200860704700000800024008040240EC
:100DC00002460020D10002D50449096801E0044927
:100DD0000968114200D00120704700000004024061
:100DE0000000024002460020D10002D504490968F3
:100DF00001E004490968114200D001207047000059
:100E00000004024000000240002A03D002680A43A6
:100E10000260704702688A430260704730B502681A
:100E200047F6F0739A430C6A8B682343D1E9044573
:100E30002C4323438C692343CC6923434C6A2343CB
:100E40008C6A234313430360CA6842600A68826065
:100E50004968C16030BD08B54FF4C06000F0FEF9CC
:100E60000E208DF8000000208DF801008DF80200A2
:100E700001208DF80300684600F0BEF908BD7047F8
:100E80002DE9FC470E460024002700970197584D96
:100E90004FF0080AC5F800A0102068604FF0400825
:100EA000C5F80880EF604FF48069C5F810902846B7
:100EB00003F0D6FC1020FFF71BFE002832D14D486E
:100EC00000890004286037206860C5F80880EF605A
:100ED000C5F81090284603F0C3FC3720FFF708FE42
:100EE00000281FD1411E05F114000160C0F804A0C4
:100EF000302181600221C16007610121416103F05D
:100F000025FC2F6033206860C5F80880EF60C5F8C5
:100F10001090284603F0A4FC3320FFF7E9FD0546B6
:100F2000280001D0BDE8FC874FF4001A6F46DFF8B7
:100F3000C88040F22A690AE0504603F035FC30B11F
:100F400003F088FC47F82400641C012C04D8D8F86E
:100F5000340010EA090FEFD0082003F025FC20B17F
:100F6000082003F0DBFB0420DCE7022003F01CFC7C
:100F700020B1022003F0D2FB0220D3E7202003F0AF
:100F800013FC20B1202003F0C9FB0620CAE74FF470
:100F90000074204603F008FC20B1204603F0BEFB9D
:100FA0000720BFE740F2FF5003F0B8FB009800991C
:100FB000000601F47F4140EA0120009901F47F011D
:100FC00040EA1120009940EA11607060019801998F
:100FD000000601F47F4140EA0120019901F47F01FC
:100FE00040EA1120019940EA11603060284699E7F3
:100FF00060380020F00000200080014008B5012189
:10100000302003F0B7FA4FF4F850ADF80000032099
:101010008DF8020018208DF803006946094800F099
:1010200015F80420ADF800006946074800F00EF8F6
:101030000121880203F082FA0121022003F07EFAE6
:1010400008BD000000100140001401402DE9F041EE
:101050000022CC7804F00F03E40601D58C782343FA
:101060000C784FF00F0714F0FF0F4FF0010C1CD05D
:1010700005680CFA02F40E882640A64211D19600AB
:1010800007FA06F825EA080503FA06F848EA05050E
:10109000CE78282E02D0482E02D002E0446100E033
:1010A0000461521C082AE4D305600A88FF2A1ED96D
:1010B0004568002202F108060CFA06F40E88264064
:1010C000A64210D1960007FA06F825EA080503FAA9
:1010D00006F848EA0505CE78282E00D14461CE787E
:1010E000482E00D10461521C082AE3D34560BDE8B4
:1010F000F0814161704701617047FEE710B5044619
:1011000006F0D4FCC4F3074000F010F8C4F3072045
:1011100000F00CF804F0F80000F008F8002000F0EF
:1011200005F8044606F0C5FC204610BD04F01ABAC6
:1011300070B504460D4606F0B9FCC4F30740FFF74E
:10114000F5FFC4F30720FFF7F1FF04F0F800001DDE
:10115000C0B2FFF7EBFF2846FFF7E8FFBDE870409D
:1011600006F0A7BC70B50D46002408A1FFF77AF879
:1011700008E0FFF799F82146641C685403A1002099
:10118000FFF770F80028F4D170BD00002E000000B9
:1011900038B50121082003F0EDF90120ADF8000079
:1011A00010208DF8030003208DF802000F4C6946D3
:1011B0002046FFF74BFF0221ADF80010694620469C
:1011C000FFF744FF2021ADF8001069462046FFF7E5
:1011D0003DFF01212046FFF78EFF02212046FFF749
:1011E0008AFF20212046FFF786FF38BD000C014012
:1011F000FEE770477047000070B50F23C2780126E4
:101200000178002A1ED0144A126802F4E062C2F586
:10121000E062120AC2F10404D3404578A540827806
:101220001A402A43120101F1E02181F800240078DC
:1012300000F01F018E404009800000F1E020C0F85E
:10124000006170BD01F01F0086404809800000F178
:10125000E020C0F8806170BD0CED00E00249084359
:1012600002490860704700000000FA050CED00E03C
:101270007047000010B504480068002800D080477F
:1012800002490120086010BD44000020140C0140F8
:1012900010B5044600F0A4F83F48002202703F4811
:1012A00002703F4802703F4802603F4802603F487A
:1012B00002703F4802703F4802703F49086840B1E1
:1012C0003E48006828B1096801E0491E04C00029B1
:1012D000FBD13B4802603B4802603B4802603B4810
:1012E00002603B4802603B4802603B4802603B486A
:1012F000027001F003FD01F0BBFD204600F0FEFF8F
:101300002088002847D1204601F0F8FA20880028DC
:1013100041D1204601F0FEFA208800283BD120462A
:1013200001F09AFB2088002835D1204601F012FDFB
:10133000208800282FD1204601F04CFE208800286C
:1013400029D1204602F0C0F82088002823D1204669
:1013500001F04AFA208800281DD1204601F0E4F867
:101360002088002817D1204602F0A8FD20880028F8
:1013700011D1204601F0FCFF208800280BD1204627
:1013800002F0F2FD2088002805D100F0B5FFBDE88D
:101390001040FFF76DBF10BD580000206000002016
:1013A0009A000020E4000020E80000208E000020C9
:1013B0008F00002090000020208500081C85000878
:1013C000380000203C0000204000002044000020A5
:1013D000480000204C00002050000020C6000020E3
:1013E00030B5094D29680020084A002301E008C1F2
:1013F000401C1468A042FAD32868116800EB8100F1
:101400000349001F086030BD1C85000820850008C6
:10141000EC00002010B523480078012840D1FEF7E9
:10142000A7FE04462049087840B1401EC0B20870AB
:1014300048B12046BDE81040FEF79EBE2046BDE8FC
:101440001040FEF799BE1948007820B12046BDE84B
:101450001040FEF791BE01F03FFC15490870154998
:1014600000EB400051F82000134908601349096857
:10147000884204D12046BDE81040FEF77DBE50F8FA
:10148000901F491C01600E480168491C01600D490C
:101490004FF0805008602046BDE81040FEF76CBE5B
:1014A00010BD000060000020580000209A000020BD
:1014B0008F000020FC330020E8000020E400002022
:1014C000BC00002004ED00E010B5184800780028AA
:1014D0002BD117480078002827D1FEF749FE044693
:1014E00001F0FAFB13490870134900EB400051F872
:1014F00020001249086012490968884204D1204638
:10150000BDE81040FEF738BE50F8901F491C01603E
:101510000C480168491C01600B494FF0805008607D
:101520002046BDE81040FEF727BE10BD5800002041
:101530009A0000208F000020FC330020E8000020EB
:10154000E4000020BC00002004ED00E070B504467B
:1015500013480078002803D046F66250208070BD02
:1015600010480078012803D045F68960208070BDBE
:101570000D4D2878FA2803D345F20920208070BD4C
:10158000FEF7F6FD0646FFF747FA2878401C28705C
:10159000FFF754FA3046FEF7EFFD0020208070BDC3
:1015A00058000020600000209A00002070B504461A
:1015B00019480078002803D046F66550208070BD99
:1015C00016480078012803D045F68960208070BD58
:1015D000134D287890B1FEF7CBFD0646FFF71CFAB5
:1015E0002878401EC0B2287060B1FFF727FA304655
:1015F000FEF7C2FD46F66350208070BD46F664508B
:10160000208070BDFFF71AFA3046FEF7B5FDFFF7F0
:101610005BFF0020208070BD58000020600000208B
:101620009A00002070B504460F4D2878002803D09A
:1016300045F68A60208070BD01F04EFB0B490870B2
:101640000B4908700B4900EB400051F820000A4993
:1016500008600A49086001202870FEF727FF43F65A
:101660009920208070BD0000600000208F000020C5
:101670008E000020FC330020E8000020E400002061
:101680002DE9F0410646FEF773FD0446FFF7C4F965
:1016900031480025056031480580314805803148D2
:1016A00005603148056031480560314805603148C2
:1016B0000581FFF7C3F92046FEF75EFDFEF758FDF2
:1016C0000746FFF7A9F92C480468FFF7B7F9384631
:1016D000FEF752FD1BE0FEF74BFD0746FFF79CF9B6
:1016E0007834E56325602563A561A582E58265629E
:1016F000A562FFF7E1F92062783C2146A1F870501D
:10170000D4F8BC40FFF79AF93846FEF735FD002CB7
:10171000E1D1FEF72DFD0746FFF77EF91748046873
:10172000FFF78CF93846FEF727FD0CE0FEF720FDA9
:101730000746FFF771F921468D85A469FFF77EF909
:101740003846FEF719FD002CF0D102F0C7FA02F07E
:10175000EDFC3580BDE8F081740000206E000020B3
:10176000A6000020B8000020CC000020D4000020FB
:101770005C000020F0330020C00000209400002016
:10178000F8B504466946284800F0DEFBBDF80000C5
:1017900008B12080F8BD6A460021022000F026FC36
:1017A000BDF8000008B12080F8BDFEF7E1FC074657
:1017B000FFF732F91D4E00253560FFF73FF9384637
:1017C000FEF7DAFC00201A491A4A0B681768BB4278
:1017D00003D908681268B0FBF2F018B909680A204A
:1017E000B1FBF0F06A46002100F000FC69460E48AB
:1017F00000F0EAF9BDF8000008B12080F8BDFEF75E
:10180000B7FC0746FFF708F90B4805600B4930683D
:1018100008600B4901200870FFF710F93846FEF701
:10182000ABFC2580F8BD000004370020A800002094
:101830004485000830850008B8000020AC00002076
:10184000B400002002480068002800D0004770471C
:10185000480000202DE9FF4F83B00446DDE91795CD
:10186000DDE91087139E93466E480078002805D066
:1018700047F24A10288007B0BDE8F08F5CB1BBF199
:10188000000F0CD07FB16848006886420FD246F640
:1018900030602880EFE747F2AD102880EBE747F291
:1018A0004F102880E7E746F62F602880E3E712987C
:1018B000B04203D346F631602880DCE746F273205D
:1018C000B8F1200F01D32880D5E7B8F1000F04D17B
:1018D00056498C4201D02880CDE7B8F11F0F04D1C2
:1018E00053498C4201D02880C5E7204601F0FCFD19
:1018F0004FF0000AA5F800A05FEAC9700BD05FEABC
:10190000897008D53846002103E0C0F800A0001D0A
:10191000491CB142F9D3129807EB8005CDE9006963
:101920002B463A465846069900F0DCFAC4F828B02F
:101930000699E1620499216284F837802060A560ED
:1019400015986065169860606762A663A4F83C907D
:10195000002004EB8001C1F87CA0401CC0B200282C
:10196000F7D004F16400149901F026F8204600F045
:1019700069F8FEF7FDFB0646FFF74EF82D4D287877
:10198000401C2870FFF75AF83046FEF7F5FB94F834
:10199000370001F0BFF9204601F0B2FA204601F00D
:1019A00061FD25490888401C0880244800780128EA
:1019B00026D0FEF7DDFB0446FFF72EF82978491EF6
:1019C000C9B2297039B1FFF739F807B02046BDE830
:1019D000F04FFEF7D1BB1A48008848B1FFF72EF848
:1019E0002046FEF7C9FB07B0BDE8F04F01F0CEBAC4
:1019F000FFF724F807B02046BDE8F04FFEF7BCBB68
:101A0000FEF7B6FB0446FFF707F82978491E297050
:101A1000FFF714F82046FEF7AFFB07B0BDE8F04F24
:101A2000FFF752BD58000020408500082C330020ED
:101A3000683200209A000020C400002060000020CE
:101A40006C00002002490968002900D0084770474F
:101A5000380000202DE9F04104460D464F4800783B
:101A6000002804D047F24E102880BDE8F0814C4891
:101A7000844203D147F24C102880F6E7494884425B
:101A800003D147F24D102880EFE75CB9FEF770FBF9
:101A90000646FEF7C1FF44480468FEF7CFFF304614
:101AA000FEF76AFBFEF764FB0746FEF7B5FF3F4E05
:101AB0003078401C3070FEF7C1FF3846FEF75CFB03
:101AC00094F83600082844D2DFE800F004080C0C33
:101AD0001C080C0C204601F02FFA13E0204602F0FF
:101AE000E1F80FE0204602F0DDF894F83400072812
:101AF00008D2DFE800F007040704040404002046CD
:101B000001F05CF804F1640000F03AFF204600F0B8
:101B100053F8204601F0B8FC25490888401E08808B
:101B2000204601F0E1FCFF2084F83600FEF720FBA0
:101B30000446FEF771FF3178491E3170FEF77EFFD3
:101B40002046FEF719FB00202880BDE8F041FFF792
:101B5000BBBCFEF70DFB0446FEF75EFF3078401E6F
:101B6000C1B2317041B1FEF769FF2046FEF704FBB8
:101B700046F62D60288078E70E48008838B1FEF7D9
:101B80005DFF2046FEF7F8FA01F000FAF0E7FEF7F5
:101B900055FF2046FEF7F0FAEAE700005800002063
:101BA000683200202C330020E40000209A0000203E
:101BB000C40000206C00002002490968002900D000
:101BC000084770473C0000207FB504460D46FEF7ED
:101BD000CFFA0646FEF720FF1CB113480068844286
:101BE00008D1FEF72BFF3046FEF7C6FA47F2571032
:101BF00028807FBDFEF722FF3046FEF7BDFA0B4876
:101C0000007850B10022CDE90225009201921346DE
:101C10002146074800F0BCFC7FBD04B029462046A1
:101C2000BDE8704001F096BDE4000020580000209F
:101C30005452455302490968002900D008477047AB
:101C4000400000202DE9F05F83468A4614461D4679
:101C50005A480078002805D046F2AE1028800020AF
:101C6000BDE8F09FBAF1000F07D0BAF5004F04D0DD
:101C700045F6256028800020F2E7002604B12660A2
:101C8000FEF776FA8146FEF7C7FE4D4F3868D0F86A
:101C90004480B8F1000F1CD0A8F10108C0F84480BE
:101CA0000CB1006C2060FEF707FF01463868026C3B
:101CB000891AC0F8A410D0F8A8208A4201D2C0F82E
:101CC000A810FEF7BBFE4846FEF756FA2E804046A7
:101CD000C6E75FEA0A4009D5FEF7B0FE4846FEF7C0
:101CE0004BFA46F2B01028800020B9E7DFF8D48024
:101CF00098F8000048B1FEF7A1FE4846FEF73CFA0E
:101D000046F6635028800020AAE7012088F80000EA
:101D1000FEF794FE4846FEF72FFA00215B460722A5
:101D2000084600F0A5FEFEF723FA8146FEF774FE92
:101D300098F80010491E88F80010FEF77FFE48460C
:101D4000FEF71AFAFFF7C0FBFEF712FA8046FEF71D
:101D500063FE396891F8350078B1012820D0032856
:101D600025D046F62E6028803868446CFEF766FE63
:101D70004046FEF701FA204672E77CB1086C20600D
:101D8000FEF79AFE01463868026C891AC0F8A41062
:101D9000D0F8A8208A4201D2C0F8A8102E80E3E72C
:101DA0000CB1086C206046F2A9102880DCE704B171
:101DB000266047F2D9202880D6E70000580000208E
:101DC000E40000209A0000207FB506460C46154628
:101DD000002C08D0B4F5004F05D045F625602880CA
:101DE000002004B070BDFEF767FE02460B48007885
:101DF00058B1002001A9009025C103460246314692
:101E0000074800F0C5FB0020EBE704B02B46214655
:101E10003046BDE8704001F029BD000058000020A8
:101E2000545349472DE9F0470646884691461F46D8
:101E30002A480078002804D047F259103880BDE8BD
:101E4000F08746F2D520B8F1000F09D0B9F1000FA4
:101E500008D0FEF78DF90446FEF7DEFD26B105E059
:101E60003880ECE73880EAE71D4806684FF0000A42
:101E7000306858B196F83C00C00714D0FEF7DEFD7C
:101E80002046FEF779F90024756A1BE0FEF7D6FDBF
:101E90002046FEF771F9C8F800A0C9F800A047F283
:101EA00052103880CBE7FEF7C9FD2046FEF764F9F3
:101EB000C8F800A0C9F800A047F254103880BEE767
:101EC0002D1D641C28680028FAD0C8F80040B06BAB
:101ED000001BC9F80000A7F800A0B0E758000020D8
:101EE000E400002010B5029C02EB84024FF08074E5
:101EF00042F8044C42F8080C0C3A12481060A2F167
:101F000030004FF01234C4624FF0033282624FF05F
:101F1000023242620362C1614FF011318161D1002E
:101F20004161611001619100C1604FF00731816032
:101F30004FF0063141604FF0053140F8041951006F
:101F4000016010BD553800081FB5104A904203D1FA
:101F500047F25B1008801FBD0D4A904203D147F243
:101F60005C1008801FBD0B4A127852B10022CDE9E7
:101F700002210146009201921346074800F008FB37
:101F80001FBD04B0BDE8104001F07CBD68320020E8
:101F90002C330020580000205453555370B510487E
:101FA0000068002800D08047FEF786FD0D4C0E4AE1
:101FB00021681368994206D094314A68821A0A60EF
:101FC0008D682A448A60C3F89800FEF707FD2168EF
:101FD000D1F8B420824201D2C1F8B40070BD000033
:101FE0004C000020E4000020E80000202DE9F04132
:101FF00080460D4614462F480078002804D047F24A
:1020000075202080BDE8F0812B4E307818B146F65F
:1020100063502080F6E74DB1022D07D0042D08D083
:10202000082D03D045F625602080EBE7B8F1000FBE
:1020300027D0FEF79DF80746FEF7EEFC3078401CEF
:102040003070FEF7FBFC3846FEF796F81B4F012177
:10205000386880F8361023462A46414601F0AAFD2A
:10206000208890B1FEF784F80446FEF7D5FC31785D
:10207000491E3170FEF7E2FC2046BDE8F041FEF754
:102080007BB847F27E202080BCE7386800F054FF20
:10209000FEF76EF80546FEF7BFFC3178491E317039
:1020A000FEF7CCFC2846FEF767F8FFF70DFA002094
:1020B0002080A7E7580000209A000020E4000020BC
:1020C0002DE9F0471646DDE908245D4D2D78002DF9
:1020D00004D047F275202080BDE8F087594F3D7845
:1020E0001DB146F663502080F6E702F00E0547F278
:1020F0007E2845F6256945B1022D06D0042D08D06D
:10210000082D02D0A4F80090E6E713B90EB901B982
:1021100028B132F01E0C05D04FF0010C04E0A4F8F9
:102120000080D9E74FF0000CBCF1010F0FD0C2F3D3
:10213000001247F2792A47F278294FF47A7C4AB1A3
:1021400042F20F7291421BD9A4F800A0C4E7A4F890
:102150000090C1E7634503D347F27B202080BBE7B3
:102160003B2E03D947F27A202080B5E73B2902D9DC
:10217000A4F800A0B0E7632807D9A4F80090ABE763
:10218000604502D3A4F80090A6E72F4A12684FF4E6
:10219000FA79B9FBF2F94B445343B3FBFCF34FF428
:1021A000616C00FB0CF0C1EB011100EB81003044CD
:1021B00000FB0236F6B3FDF7DBFF8046FEF72CFC92
:1021C0003878401C3870FEF739FC4046FDF7D4FFE4
:1021D000DFF878800121D8F8000080F83610234617
:1021E0002A46314601F0E6FC208870B1FDF7C0FFB9
:1021F0000446FEF711FC3978491E3970FEF71EFCC3
:102200002046BDE8F047FDF7B7BFD8F8000000F062
:1022100093FEFDF7ADFF0546FEF7FEFB3978491E3C
:102220003970FEF70BFC2846FDF7A6FFFFF74CF9C7
:10223000002000E001E020804EE7A4F800804BE79A
:10224000580000209A00002044850008E400002087
:1022500000B585B000F01CF8FEF72EFC04AACDE90D
:10226000020200210748009101910078064900EB25
:10227000400001EB800100231A46044800F088F971
:1022800005B000BD8E000020FC3300205449434BB4
:1022900002480068002800D0004770475000002026
:1022A00010B5FDF765FF0446FEF7B6FB074A117847
:1022B000491C1170FEF7C2FB2046FDF75DFFFFF7DA
:1022C000C7FFBDE81040FFF7A5B800005800002088
:1022D0004FF0E021401E4861064A106820F07F4020
:1022E0001060086940F005000861086940F00200CC
:1022F0000861704720ED00E070470000034A0021AC
:102300001160034A118001807047000078000020AE
:102310007C0000202DE9F05F04460F4690469A4667
:102320000A9EFDF725FF0546FEF776FBB8F1000F84
:102330002ED0B8F1010F07D0B8F5004F28D06FF4B8
:10234000004018EB000F18D1206AB8432062C4F88F
:1023500024A004F1080B4FF00009BBF80800D8B125
:10236000524F3878401C3870FEF768FB2846FDF75E
:1023700003FFDBF80050A86874E0FEF75FFB284617
:10238000FDF7FAFE45F6256030800020BDE8F09F9D
:10239000206A38432062DAE7FEF750FB2846FDF753
:1023A000EBFEA6F80090206AF0E76D6890F88810C0
:1023B00001F00F0101292CD0022935D0042915D0B4
:1023C00008291DD0FDF7D4FE0446FEF725FB38781A
:1023D000401EC1B2397091B3FEF730FB2046FDF7C5
:1023E000CBFE43F6FF2030800020CFE7216AD0F8F3
:1023F000802011408A421FD1524600F05BF81BE05A
:10240000216AD0F880201140B1B1524600F052F854
:1024100012E0D0F88010236A0A4699438A420BD111
:10242000524600F047F807E0D0F88010226A914346
:1024300011B1524600F03EF89DB1A86812E0FFE7E6
:102440001B48008838B1FEF7F9FA2046FDF794FEE4
:1024500000F09CFDC5E7FEF7F1FA2046FDF78CFE83
:10246000BFE700200028A0D1FDF782FE0546FEF759
:10247000D3FA3878401E3870FEF7E0FA2846FDF7A8
:102480007BFE5FEA084001D4FFF71EF8FDF770FEFF
:102490000546FEF7C1FA246AFEF7D0FA2846FDF792
:1024A0006BFEA6F80090204670E700009A0000201E
:1024B0006C00002070B50446343421650025657039
:1024C0002570E260A078343C08280ED2DFE800F0E6
:1024D0000D0D04040D0D0A0A204601F02BF984F8B5
:1024E000365002E0042084F836002046BDE87040F3
:1024F00000F064BB0A4C0B4DFDF73AFE0646FEF7B2
:102500008BFA2168491C21602968491C2960FEF763
:1025100095FA3046FDF730FEFEF7ACFEECE7000022
:1025200054000020A800002000B589B00D4A002109
:1025300011600B22CDE9061208900C4A05910A4859
:102540000B4B126800681B68CDE90132CDE903012D
:102550001F2000900023074A07A10C48FFF77AF9D3
:1025600009B000BD54000020048500080085000863
:10257000FC840008F524000875432F4F532D49496A
:10258000492049646C65205461736B0068320020F7
:102590002DE9F84F0546DDE90BAB0E461746984688
:1025A000DDF828900D9CFDF7E3FD0090FEF734FA6E
:1025B0001D491E4A08881288904227D2401C80B2CA
:1025C00008801B490A88824200D20880194908689D
:1025D00005608660C760A0F81080C0F81490A0F86D
:1025E00018A0C0F81CB040680860134801210181A0
:1025F000124901604160002000F08CFB1048007817
:1026000008B1104908700020208006E00E490888B3
:10261000401C088044F253602080FEF70FFA0098B7
:10262000BDE8F84FFDF7A8BD6C0000200C85000840
:102630006E00002064000020FC3300202C330020BA
:102640008E00002090000020700000203EB535482C
:10265000354A02AB006801688C1A914249D015DCFA
:10266000324A89182DD0324A891822D0314A891825
:1026700033D0314AD14208D1C169CDE90013038B6F
:10268000028AC168806800F087FF3EBD2B4961184F
:102690001ED02B4A891827D02A4AD142F5D1C169C8
:1026A000CDE90013038B028AC168806800F05EFBED
:1026B0003EBD0093028BC36941698068FFF72AFE23
:1026C0003EBD018BC269806802AB00F08FFC3EBD4D
:1026D000806802A901F03EF83EBD018BC2698068A6
:1026E00002AB01F0C3F83EBD806802A901F0CAF94F
:1026F0003EBDC26902AB0021134801F0B7F813498F
:102700000868401E08600028F2D11148006808607F
:10271000FEF7D2F9024602AB00210E4801F0A6F8FE
:102720003EBD0000680000205449434BADBAB2BE24
:102730000DF90BFAF2F8F7FF0006F6FF00F7FDF7C8
:1027400000FFEFFF03FE0FFE40360020E0000020F8
:10275000DC000020043700201F4E204D0024FDF730
:1027600007FD0746FEF758F9288820B3FEF766F9FB
:102770003846FDF701FDFEF79FF90746FFF766FFB4
:10278000FEF79AF9C01B3168814200D23060FDF734
:10279000EFFC0746FEF740F91148016849680160FF
:1027A0002988491E2980FEF749F93846FDF7E4FCDF
:1027B000002CD4D0D2E70B4A002111811160516066
:1027C000002000F0B7FAFEF739F93846FDF7D4FCDF
:1027D000FEF77AFE0124EBE7740000206C00002075
:1027E00068000020FC330020F0B589B02D4900249A
:1027F0000C802D4D2968002908D02C4E31880229E3
:1028000008D244F25461018009B0F0BD44F2526133
:102810000180F9E726490C60296801F120020023B4
:10282000244F0AE00F608C60CC600C824C610C83FA
:102830004A60203120325B1C9BB2B6F800C0634571
:10284000F0D32A6841F81C2C1B490A601B490A6016
:102850001B490C801B490C801B4A116849B11B495C
:102860001B4D0B682D68AB4207D244F256610180C4
:10287000CAE744F255610180C6E70323CDE9064368
:102880000594089008681349126800230968CDE987
:102890000304CDE9004202910F4A10A11648FEF749
:1028A000D9FFB1E770000020088500080C850008FA
:1028B000740000204E4F4E45640000206800002048
:1028C0006C0000206E0000201085000818850008AC
:1028D00040850008148500085927000875432F4FCC
:1028E000532D49494920495352205175657565203A
:1028F0005461736B000000002C330020034A002158
:102900001160034A118001807047000080000020A0
:1029100084000020F0B5174E316800290BD0164F07
:10292000398861B13168326810323B885B1E9DB2D4
:10293000002300240FE045F21E710180F0BD45F236
:102940001D710180F0BD0A604C600C81CC601031BB
:1029500010325B1C9BB2AB42F5D30C604C600C8117
:10296000CC60064932680A603A888A80CC800C8143
:102970000480F0BD2885000824850008F03300207D
:1029800010B54289002A12D003680A490C681C60FD
:1029900043680B60CB8844891B1BCB808B884489A0
:1029A00023448B8000214181818101604160104678
:1029B00010BD0000F03300200181002141818181A0
:1029C00001604160704700002DE9F041DDE906C774
:1029D00044890589AC4204D346F293503880BDE85F
:1029E000F0811C4EB588CDB13468D4F80080C6F8AB
:1029F00000806D1EB580F5886D1CADB2F580B6F80F
:102A00000880A84500D235814689002556B1DB06ED
:102A10000ED403681C60046025600CE045F21D7054
:102A20003880DCE70460446001234381256005E0D1
:102A300043682360446043895B1C438186894389E2
:102A40009E4200D2838161602281C4F80CC03D8027
:102A5000C5E70000F0330020034A00211160034A5B
:102A60001180018070470000880000208C00002049
:102A70002DE9F0410C4607461946104D286880F8AC
:102A80003420002680F8356000F0D2FC64B104F1F7
:102A90000806FC6001223946286800F011F8394622
:102AA000304600F05DF802E02868C68706632046DD
:102AB0002968BDE8F04100F017B80000E4000020EC
:102AC00010B5C28701630024002309E04B600B604E
:102AD0000B614B610B83CB6188602031641CA4B215
:102AE0009442F3D310BD0000002809D04268C1F819
:102AF000C02000F1080109688968096AC16170474E
:102B000091F83400022805D0072807D005A0C1F8A5
:102B1000C000704704A0C1F8C000704704A0C1F80D
:102B2000C0007047200000005461736B205100000A
:102B30005461736B2053656D0000000007A2C1F85B
:102B4000C02000F108010968002903D08968096ADA
:102B5000C161704701A1C161704700002000000001
:102B600030B58A6892F8374002890025002A03D0E0
:102B7000521C028102680CE0012202814D600D604E
:102B80000160416030BD936893F83730A34202D8AA
:102B90005268002AF7D132B1136853B10B604A6012
:102BA0005960116030BD4D6042680A6051604160FB
:102BB00030BD11600D604A60016030BD70B50646E1
:102BC000356BF48F07E0E8680830294600F009F813
:102BD0002035641EA4B2002CF5D10020F0873063AC
:102BE00070BD10B502890024012A0BD00A6862B1B9
:102BF0004B6873B153601A600289521E02814C60A7
:102C00000C6010BD04604460F6E74A68146002601E
:102C1000F2E754604260EFE7F8B5064606980C46C6
:102C2000002594F8361008291CD2DFE801F01B1BA0
:102C300004041B1B222294F83410032913D0E265EC
:102C4000A4F86030206436B12046FFF7B7FF214674
:102C50003046FFF773FF204600F06CFD3434A5705A
:102C600065702570F8BD00902146304600F020F8D0
:102C7000E9E794F83410032914D0E265A4F8603031
:102C80002064204601F00EF836B12046FFF796FF8B
:102C900021463046FFF752FF04203434A07065709F
:102CA0002570F8BD00902146304600F001F8E8E7B5
:102CB00070B5049D0C6BC98F0AE0E668864204D1AA
:102CC000206162612383E56170BD2034491E89B2B1
:102CD0000029F2D170BD000010B50024064802E0C2
:102CE0002034E4B2001D01680029F9D00068FDF726
:102CF0004AFA2044C0B210BD340000200020044A2B
:102D0000002142F82010401C0028FAD07047000033
:102D100034000020410900F01F020120C2F11F020F
:102D20009040034B53F82120024343F82120704781
:102D300034000020410900F01F020120C2F11F02EF
:102D40009040034B53F82120824343F821207047E1
:102D500034000020034A00211160034A11800180E1
:102D60007047000094000020980000202DE9FF4FDC
:102D700083B08146DDE9107A8B461E46FDF7F8F9EF
:102D80000446FDF749FEDFF8E08098F80000401C9B
:102D900088F80000FDF752FE2046FDF7EDF909F135
:102DA0000800048924B1B10500D4012405683FE07E
:102DB000F00601D4002300E01023CDE9007A594643
:102DC00009F12000059AFFF7FFFDFDF7D1F9044650
:102DD000FDF722FE98F80010491EC9B288F80010CD
:102DE00039B1FDF72BFE07B02046BDE8F04FFDF7E7
:102DF000C3B91E48008848B1FDF720FE2046FDF704
:102E0000BBF907B0BDE8F04F00F0C0B8FDF716FE03
:102E100007B02046BDE8F04FFDF7AEB9A9686D6870
:102E200000975A464846059BFFF7F6FE641EA4B27B
:102E3000002CF3D1FDF79CF90446FDF7EDFD98F861
:102E40000010491E88F80010FDF7F8FD2046FDF738
:102E500093F9300401D4FEF737FB0020AAF80000F4
:102E600007B0BDE8F08F00009A0000206C00002041
:102E70000020074B002200EB400103EB81010A8197
:102E80000A604A60401CC0B22028F4D3704700009A
:102E9000FC33002010B5044694F83700FFF73AFFE2
:102EA000074994F837000978884204D12046BDE8E4
:102EB000104000F025B82046BDE8104000F002B8F0
:102EC0008E00002090F837100C4A01EB410102EB14
:102ED000810100230A89002A08D0521C0A810A684D
:102EE000C26003610A6810610860704701220A81AC
:102EF000C36003610860486070470000FC33002035
:102F000090F837100B4A01EB410102EB81010023DD
:102F10000A89002A07D0521C0A81C3604A680261EC
:102F2000D0604860704701220A81C3600361086075
:102F300048607047FC33002070B50446124994F88D
:102F4000370000EB400001EB80012069E2680025BA
:102F5000002808D00B895B1E0B81C26092B1106102
:102F60002561E56070BD2AB10889401E08811561A0
:102F70000A60F5E70D810D604D6094F83700FFF7AA
:102F8000D9FEEDE74860EBE7FC33002010B5FDF714
:102F9000EFF80B4A002111700B4A0A49116051F8F1
:102FA000902F521C0A6009490A68521C0A60084A9C
:102FB0004FF080511160BDE81040FDF7DDB8000012
:102FC0008F0000202C330020E8000020BC000020EF
:102FD00004ED00E0034A00211160034A11800180E2
:102FE000704700009C000020A00000202DE9F84F51
:102FF0000646894690461F46FDF7BAF80446FDF797
:103000000BFD06F108054FF0000B288980B1DFF8B1
:10301000A8A09AF80000401C8AF80000FDF70EFDF9
:103020002046FDF7A9F85FEA89501CD52C891BE0E2
:10303000356A681C0DD06D1C3562C6F82480FDF71A
:10304000FDFC2046FDF798F8A7F800B02846BDE83B
:10305000F88FFDF7F3FC2046FDF78EF846F6C550D5
:1030600038800020F3E701242D680AE0A9686D6824
:1030700000231A463046CDF80080FFF7CDFD641ED0
:10308000A4B2002CF2D1346AFDF772F80546FDF7C0
:10309000C3FC9AF80010491E8AF80010FDF7CEFC18
:1030A0002846FDF769F85FEA094001D4FEF70CFAFB
:1030B000A7F800B02046CAE79A0000200EB59A4E45
:1030C0009A4D3068440004E0204602AA0021FEF731
:1030D0008DFF28780128F7D102A8FEF7D1FA4FF02A
:1030E000000A934832680168914203D90168326846
:1030F000B1FBF2FABAF1000F03D100680A21B0FB6C
:10310000F1FA4FF47A7942F210774FF00008EBE0D1
:103110008848824202D23846012113E08648824222
:1031200002D248460A210DE08448824202D264203D
:10313000642107E08248824202D20A20494601E027
:1031400001203946B2FBF1F15843B0FBF1F07D4963
:10315000381A80B208807C490A88824203D20880EB
:1031600001E078480780FEF76DFB0025FDF700F8C9
:103170000646FDF751FCDFF8D4B1DBF80040FDF75F
:103180005DFC3046FCF7F8FF30E0FCF7F1FF009003
:10319000FDF742FC6E4E3078401C3070FDF74EFC5F
:1031A0000098FCF7E9FFD4F89C00C4F8A000C4F82C
:1031B0009C80FCF7DDFF0090FDF72EFC3078401E70
:1031C000C0B23070D8B1FDF739FC0098FCF7D4FFDD
:1031D00054F8A00F0544FCF7CBFF0646FDF71CFC96
:1031E000E469FDF72BFC3046FCF7C6FF002CCCD180
:1031F0006DB35048854213D23E46012024E0554825
:10320000008838B1FDF71AFC0098FCF7B5FFFFF70E
:10321000BDFEDDE7FDF712FC0098FCF7ADFFD7E738
:103220004548854202D24E460A200DE04348854279
:1032300002D26426642007E04148854202D20A2671
:10324000484601E001263846B5FBF0F501E00026CE
:103250000125FCF78DFF0090FDF7DEFBDBF8004059
:10326000FDF7ECFB0098FCF787FF23E0D4F8A00003
:103270007043B0FBF5F080B2B84200D93846A4F8EC
:103280008C00B4F88E10814201D2A4F88E0004F1B3
:10329000AC0202AB111D2046FEF7C4FDFCF768FF2F
:1032A0008346FDF7B9FBD4F8BC40FDF7C7FB584691
:1032B000FCF762FF002CD9D127480178012904D1FD
:1032C00080F8008002A8FEF7DBF9FDF7F5FB014668
:1032D0000198081A21490A68824200D2086002AAAD
:1032E00000215046FEF782FEFDF7E6FB0190FDF758
:1032F00085FB01461A480160FCF73AFF0546FDF7D9
:103300008BFB1848184C01682160C0F80080FDF75D
:1033100095FB2846FCF730FF1448236802689A4260
:10332000FFF41FAFF4E6000030850008B400002071
:1033300044850008801A060000093D00005A620218
:103340000084D717A4000020A6000020C0000020A1
:103350009A0000206C000020A2000020B80000208D
:103360005C000020A8000020B0000020AC0000207D
:1033700030B589B01D4A002111601D4A11601D4AF7
:1033800011601D4A11701D4A11701D4A1368002BEF
:103390000AD01C4C1C4D23682D68AB4208D246F65F
:1033A0002C61018009B030BD46F62B610180F9E740
:1033B000164B1D781F2D03D346F62A610180F1E7D5
:1033C0000325CDE906150890059111482468126877
:1033D0000068CDE90341CDE9012018780090002371
:1033E0000C4A0DA11148FEF735FADBE7A8000020D2
:1033F000B0000020AC000020B4000020A20000209B
:10340000348500083C850008408500082C850008AC
:1034100038850008BD30000875432F4F532D4949AA
:10342000492053746174205461736B007C35002013
:1034300038B50446022500290ED06B4602222046EC
:1034400000F0B8FBBDF8000010B184F8365005E07C
:10345000032084F8360001E084F836502046FFF758
:103460006BFD38BD0023C0F8B830064A116800294A
:1034700005D0C0F8BC10C1F8B80010607047C0F8A3
:10348000BC30FAE7C0000020D0F8B820D0F8BC105B
:103490000023002A08D079B1C2F8BC10C1F8B820C6
:1034A000B830436003607047064A116009B1C1F843
:1034B000B830C0F8BC307047C2F8BC30C0F8B83083
:1034C00070470000C0000020044A00211160044A37
:1034D0001180044A1160018070470000C000002084
:1034E000C4000020BC00002070B504460025256003
:1034F000A5606560E56025616561A561E56123A062
:1035000020626562A562E5622564E565A4F8605005
:10351000002104F16400FFF74FFA44F8745F65601E
:10352000E560A5822561743C002004EB8001CD6735
:10353000401CC0B20028F8D0343425612567656787
:10354000656084F85650E567A56725814FF0004017
:103550006061A561E56125626562A4F85850A4F830
:103560005A50E5652566FDF7A7FA6066A566C4F8BA
:10357000805025706570A5702020E070C4F88450DC
:10358000C4F8885003A0C4F88C0070BD3F54617328
:103590006B000000200000002DE9FC5F0446DDE91F
:1035A0000C758A4693469946FCF7E2FD8046FDF786
:1035B00033FA5D4E3078401C3070FDF73FFA4046DC
:1035C000FCF7DAFD0CB9594804680020288094F80B
:1035D0003600DFF85C8108287DD2DFE800F00404C3
:1035E000313104043131CDE900754B465A4651461C
:1035F00004F16400FFF7E8F9FCF7BAFD0446FDF7B3
:103600000BFA3178491EC9B2317031B1FDF716FAA3
:103610002046BDE8FC5FFCF7AFBDB8F8000040B144
:10362000FDF70CFA2046FCF7A7FDBDE8FC5FFFF7AD
:10363000ADBCFDF703FA2046BDE8FC5FFCF79CBD7E
:1036400094F83400022819D0CDE900754B465A464B
:10365000514604F16400FFF7B7F9FCF789FD044611
:10366000FDF7DAF93178491EC9B2317009B3FDF7B7
:10367000E5F92046BDE8FC5FFCF77EBD5B4652469F
:10368000214600200097FFF7C7FAFCF771FD0446BA
:10369000FDF7C2F93178491E3170FDF7CFF92046A8
:1036A000FCF76AFD5FEA09402AD4BDE8FC5FFDF73C
:1036B0000BBFB8F8000040B1FDF7C0F92046FCF799
:1036C0005BFDBDE8FC5FFFF761BCFDF7B7F9204685
:1036D000BDE8FC5F00E001E0FCF74EBDFCF748FDF3
:1036E0000446FDF799F93078401EC1B2317049B1F6
:1036F000FDF7A4F92046FCF73FFD46F62D60288033
:10370000BDE8FC9FB8F8000038B1FDF797F92046F6
:10371000FCF732FDFFF73AFCEFE7FDF78FF92046A3
:10372000FCF72AFDE9E700009A000020E4000020F1
:103730006C00002010B50446204600F0B3FA94F85F
:103740003610490704D42046BDE81040FFF7A2BB5D
:1037500010BD00002DE9F04104460D46FCF708FDC0
:103760000646FDF759F900272F8094F836000828FF
:1037700064D2DFE800F0040404040D304050FDF78B
:103780005DF93046FCF7F8FC47F25310288051E011
:103790002F4D2878401C2870FDF750F93046FCF773
:1037A000EBFC94F88A00401EC0B284F88A0020B96D
:1037B00084F836702046FFF7BDFFFCF7D9FC0446BD
:1037C000FDF72AF92978491E2970FDF737F92046B7
:1037D000FCF7D2FC2EE094F88A00401EC0B284F8B8
:1037E0008A0010B9012084F83600FDF727F9304629
:1037F000FCF7C2FC1EE094F88A00401EC0B284F8B8
:103800008A0010B9022084F83600FDF717F9304617
:10381000FCF7B2FC0EE094F88A00401EC0B284F8B7
:103820008A0010B9032084F83600FDF707F9304606
:10383000FCF7A2FCBDE8F041FDF746BEFDF7FEF83F
:103840003046FCF799FC46F62D602880BDE8F081F3
:103850009A00002008B504480068FEF7EBF96946B5
:103860000020FEF7F7F808BDE40000202DE9F84F2E
:1038700004468A4616461F46FCF77AFC8046FDF74A
:10388000CBF87D4D2878401C2870FDF7D7F84046CE
:10389000FCF772FC0CB97948046826640020388073
:1038A00094F83600DFF8D88146F6C55908287DD24D
:1038B000DFE800F004044F4F04044F4F666C701CA7
:1038C00011D0761C6664FCF753FC0446FDF7A4F89F
:1038D0002878401EC0B2287050B3FDF7AFF82046DC
:1038E000FCF74AFCB4E0FCF743FC0446FDF794F80F
:1038F0002878401EC1B2297049B1FDF79FF82046D3
:10390000FCF73AFCA7F800900020BDE8F88FB8F863
:10391000000038B1FDF792F82046FCF72DFCFFF7C8
:1039200035FBEFE7FDF78AF82046FCF725FCE9E7D1
:10393000B8F8000038B1FDF781F82046FCF71CFC10
:10394000FFF724FB84E0FDF779F82046FCF714FC30
:103950007EE094F83400072814D0666C701C2ED0DA
:10396000761C6664FCF704FC0446FDF755F82878DD
:10397000401EC0B22870A8B3FDF760F82046FCF7DF
:10398000FBFB65E000231A46214618460096FFF728
:1039900043F9666CFCF7ECFB0446FDF73DF828782C
:1039A000401E2870FDF74AF8204600E03DE0FCF795
:1039B000E3FB5FEA0A404BD4FDF786FD48E0FCF7E5
:1039C000D7FB0446FDF728F82878401EC1B22970BD
:1039D00049B1FDF733F82046FCF7CEFBA7F800907D
:1039E000002092E710E0B8F8000038B1FDF726F8A3
:1039F0002046FCF7C1FBFFF7C9FAEFE7FDF71EF819
:103A00002046FCF7B9FBE9E7B8F8000038B1FDF74C
:103A100015F82046FCF7B0FBFFF7B8FA18E0FDF701
:103A20000DF82046FCF7A8FB12E0FCF7A1FB0446CA
:103A3000FCF7F2FF2978491EC9B2297051B1FCF791
:103A4000FDFF2046FCF798FB46F62D6038800026E7
:103A500030465AE7B8F8000038B1FCF7EFFF2046CF
:103A6000FCF78AFBFFF792FAEEE7FCF7E7FF204648
:103A7000FCF782FBE8E700009A000020E400002049
:103A80006C0000202DE9F04104460D46FCF770FB68
:103A90008046FCF7C1FF3A4804B904680068394E13
:103AA00084420BD1307848B1FCF7C8FF4046FCF7A0
:103AB00063FB46F663502880BDE8F0810020288033
:103AC00094F836000127082851D2DFE800F00422DC
:103AD0002D38434343433078401C3070FCF7AEFF31
:103AE0004046FCF749FB042084F8360084F88A70CD
:103AF0002046FFF721FAFCF73BFB0446FCF78CFF5E
:103B00003178491E3170FCF799FF2046FCF734FBF1
:103B100029E0052084F8360084F88A70FCF78EFFCF
:103B20004046FCF729FB1EE0062084F8360084F8A6
:103B30008A70FCF783FF4046FCF71EFB13E007206A
:103B400084F8360084F88A70FCF778FF4046FCF76A
:103B500013FB08E014F88A0F401C2070FCF76EFF7E
:103B60004046FCF709FBBDE8F041FDF7ADBCFCF7B2
:103B700065FF4046FCF700FB46F62D6028809BE77A
:103B8000E40000209A00002010B500200022074B1E
:103B9000074C06E003EBC0010A608A80CA80401C23
:103BA00080B221888842F5D310BD0000582F002034
:103BB00058850008F0B5384E002547F27E27346856
:103BC000042A08D099B33746082A3F680F4410D01A
:103BD000C76401651CE00A1B521E12F5803F04D920
:103BE000C5640565C5611F80F0BDC164521C0265D6
:103BF0000EE0826C0A44A2EB040CACF1010C8C4583
:103C000001D2C26400E0C764C16C0A1B0265816412
:103C1000224AC16C1288B1FBF2F402FB141189B282
:103C20001F4A02EBC102918839B1116822E0FFE717
:103C3000C5640565C5611F80F0BD45618561106083
:103C4000012191801BE0CC6C3768E41B0C65076D8B
:103C5000A74208D94C690CB121460BE0456181614E
:103C60004861002106E08C698CB18461416160612A
:103C7000886100210029E6D19188491C9180D4886F
:103C800091888C4200D2D180C2611D80F0BD8561D7
:103C9000416188611060ECE7C80000205885000889
:103CA000582F002010B5C169002915D000240465E3
:103CB0000A68824204D142690A6032B1946104E028
:103CC000836942695A6102B1936144618461C4614C
:103CD000C4648888401E888010BD000010B5002094
:103CE0000022064B064C04E003EBC001CA80401CD6
:103CF00080B221888842F7D310BD0000582F0020E1
:103D0000588500082DE9F05FFCF732FA0446FCF70D
:103D100083FE5A490A78521C0A70FCF78FFE20462F
:103D2000FCF72AFAFCF7C8FE8346554E3068401C63
:103D3000306054490988B0FBF1F201FB120080B2F7
:103D4000514901EBC00004680025A8464FF0030963
:103D50004FF0040A94B3676994F83600082859D2E2
:103D6000DFE800F058045812582F583DE06C3168D5
:103D7000421A2265884205D184F836802046FFF732
:103D8000D9FC47E0012545E0E06C3168421A226524
:103D9000884214D1C4F85C80A4F86080FCF78CFEE3
:103DA00020642046FEF70AFF2046FFF7C3FC84F894
:103DB000368084F8359084F834802BE02CE001259F
:103DC00028E0E06C3168421A2265884205D184F807
:103DD00036A02046FFF766FF1CE001251AE0E16CE3
:103DE00030680A1A2265814213D1C4F85C80A4F8B5
:103DF0006080FCF761FE20642046FEF7DFFE20466F
:103E0000FFF750FF84F836A084F8359084F83480AA
:103E100000E001253C4600E00125002D9AD0FCF78A
:103E20004BFEA0EB0B0019490A68824200D20860E1
:103E3000FCF79EF90446FCF7EFFD104A1178491E85
:103E4000C9B2117031B1FCF7F9FD2046BDE8F05F51
:103E5000FCF792B90E48008840B1FCF7EFFD204610
:103E6000FCF78AF9BDE8F05FFFF790B8FCF7E6FDD4
:103E70002046BDE8F05FFCF77FB900009A00002003
:103E8000C800002058850008582F0020CC000020D2
:103E90006C0000201CB5084C002101AB6A460846A6
:103EA000FDF7D0FEBDF804000028F5D120780128E8
:103EB000F2D1FFF727FFEFE76000002030B589B0AF
:103EC00004461B48002505601A480560FFF75CFEA4
:103ED0001948016851B11949194B0A681B689A427F
:103EE00008D247F21320208009B030BD47F21220DB
:103EF0002080F9E7134A13781F2B03D347F21120D0
:103F00002080F1E70B23CDE90653059508940E4B6D
:103F1000096800681B68CDE90315CDE90103107835
:103F200000900023094A0AA10E48FDF793FCDBE745
:103F3000C8000020CC0000204C85000854850008F3
:103F4000408500084885000850850008953E000817
:103F500075432F4F532D494949205469636B2054B1
:103F600061736B004036002030B589B02C490023C6
:103F70000B602C4C2C4A2D492568002D05D0126869
:103F80002468B2FBF4F20A6004E012680A24B2FB6F
:103F9000F4F20A60264A0968116026490B60264936
:103FA0000B600021254C264D06E004EBC1029380F6
:103FB000D3801360491C89B22A889142F5D3214AE3
:103FC000116851B12049214D0C682D68AC4208D2CE
:103FD00047F24831018009B030BD47F247310180D6
:103FE000F9E71B4C25781F2D03D347F2463101809A
:103FF000F1E70B25CDE906350593089008681549CA
:1040000012680968CDE90303CDE901212078009009
:104010000023114A11A11748FDF71CFCDBE7000043
:10402000D00000205C85000844850008DC000020EA
:10403000E0000020D8000020D4000020E031002063
:104040006C850008608500086885000840850008C8
:104050005A850008648500085541000875432F4FB4
:10406000532D4949492054696D6572205461736B21
:10407000000000000437002070B5022280F82A20DA
:10408000274C0129236815D0016AB9B1194481610F
:10409000244A81691288B1FBF2F502FB151292B233
:1040A000214D05EBC202002516685EB1C91AC16137
:1040B000116824E0416A19448161E9E7416A1944C1
:1040C0008161E5E7056145611060012090801BE09A
:1040D0008B6926689B1BCB61C6699E4208D90B6918
:1040E0000BB119460BE0056141610861002106E052
:1040F0004B697BB14361016118614861002100296E
:10410000E6D19088401C9080D1889088814200D26E
:10411000D08070BD4561016148611060EEE700002C
:10412000D80000206C850008E031002010B5002088
:104130000022064B064C04E003EBC001CA80401C81
:1041400080B221888842F7D310BD0000E031002002
:104150006C8500081CB5DFF89CA0DFF89CB0274FE9
:10416000DFF89C90002101AB6A460846FDF76AFD26
:1041700001A8FDF7EBF9FCF79FFC80463868401C6E
:104180003860BAF80010B0FBF1F201FB120080B207
:104190000BEBC00004680025DCB12669A069396812
:1041A000884214D1204600F02DF8208D022809D035
:1041B000032084F82A00A26812B12046E1689047E3
:1041C000344607E001212046FFF756FFF3E70125BB
:1041D00000E00125002DDFD0FCF76EFCA0EB080409
:1041E00001A8FDF7E3F9D9F80000A042BAD2C9F856
:1041F0000040B7E76C850008E0310020D8000020BF
:10420000D400002010B5104A81691288B1FBF2F386
:1042100002FB131189B20D4A02EBC10100240B68A5
:104220000269834203D10A602AB1546103E0436901
:104230001A6102B15361012280F82A2004614461AD
:104240008888401E888010BD6C850008E031002001
:104250002DE9F0418AB00F463844002400F8024CA2
:104260006DA13846FBF7EFFFDFF8B481002830D0AE
:104270006CA13846FBF7D5FF6C4D6D4E002830D051
:1042800000216C48FCF712FD6BA13846FBF7EAFFF2
:1042900069A10020FBF7E6FF044667A10020FBF7B9
:1042A000E1FF074629462046FCF75CFF3846FBF74E
:1042B000FBFF81B23180284604F018F93188E87894
:1042C000CDE90001AB786A7829785CA001F0CAFCDE
:1042D0009BE062A001F0C6FC0121404601F004F918
:1042E00093E063A13846FBF7AEFFD0B162A1384638
:1042F000FBF7A9FFC8B162A13846FBF7A4FF18B3CA
:1043000061A13846FBF78DFF00287AD000244AA12E
:104310003846FBF7A7FF48A10020FBF7A3FF05AF36
:104320001CE001200AB0BDE8F0810021404601F008
:10433000DBF8574D01206870564802F0F0FD2C70F4
:1043400055A001F08FFC60E00220EBE72146641CE1
:1043500047F8210038A10020FBF784FF0028F5D1A1
:1043600004A90598FCF7FEFE03A90698FCF7FAFEDF
:1043700002A90798FCF7F6FE2C490898FCF7F2FE14
:104380000998FBF791FF80B230800090274B03AA79
:1043900002A904A803F0E8FC04A803F097F99DF82B
:1043A000130000909DF812309DF811209DF8101018
:1043B00040A001F057FC03A803F08EF99DF80F0010
:1043C00000909DF80E309DF80D209DF80C1041A036
:1043D00001F048FC02A803F06EF99DF80B00009074
:1043E0009DF80A309DF809209DF8081041A001F0C1
:1043F00039FC3188E878CDE90001AB786A78297812
:1044000000E004E041A001F02DFC00208AE746A076
:1044100001F028FCFF2085E773617665000000004D
:104420000038004073657276657200005401002008
:1044300042010020440002402F00000053657276C4
:10444000657220496E666F3A2025642E25642E25FC
:10445000642E25643A25640D0A00000053617669D4
:104460006E6720646174612E2E2E0D0A000000001C
:1044700073656E640000000073746F7000000000CC
:104480006673697A650000006E6574636667000094
:1044900004010020E0030020446174612074726113
:1044A0006E736D697373696F6E2061626F727421D0
:1044B0000D0A0000573535303020495020416464E2
:1044C000726573733A2025642E25642E25642E258B
:1044D000640D0A005735353030204E65746D6173B8
:1044E0006B3A2025642E25642E25642E25640D0A42
:1044F0000000000057353530302067773A202564BA
:104500002E25642E25642E25640D0A0053657276CF
:10451000657220496E666F3A2025642E25642E252B
:10452000642E25643A256400496E76616C696420C6
:10453000636F6D6D616E64210D0A0000054A0029EC
:1045400003D0516901435161704751698143516101
:104550007047000000100240054A002903D0D169CD
:104560000143D1617047D1698143D1617047000037
:1045700000100240054A002903D09169014391616E
:1045800070479169814391617047000000100240BB
:1045900010B5264A516801F00C01254B002927D09F
:1045A000042927D0082927D00360516801F0F001C1
:1045B0000909204B5C5C0168E1404160546804F4E7
:1045C000E064240A1C5D21FA04F48460546804F455
:1045D0006054E40A1B5DD940C160526802F4404255
:1045E000920B144B1B1F9A5CB1FBF2F1016110BDE1
:1045F0000360DAE70360D8E7516801F4701153688B
:1046000003F48033022404EB914133B153689B03DC
:1046100007D5094B59430160C7E7074B5943016070
:10462000C3E7034B59430160BFE70000001002409D
:1046300000127A000400002000093D002DE9FC472B
:104640000646002400940194002000F0BFF8800189
:1046500002D50E20BDE8FC872E4D6946288980B220
:10466000FCF70EFC0028F5D137202B4F4FF0060A3F
:104670004FF040094FF48068012E22D00199C90300
:1046800045D52989090439607860C7F80890FC602D
:10469000C7F81080384600F0E3F83720FCF728FA16
:1046A0000028D7D13C60C7F804A0C7F80890FC6088
:1046B000C7F81080384600F0D3F80620FCF718FA47
:1046C000C8E70199490320D5298909043960786030
:1046D000C7F80890FC60C7F810800F4800F0C0F8D9
:1046E0003720FCF705FA0028B4D102203860C7F85B
:1046F00004A0C7F80890FC60C7F81080064800F0D6
:10470000AFF80620FCF7F4F9A4E72520A2E725205E
:10471000A0E70000F0000020603800200149886315
:104720007047000000800140014988637047000025
:10473000008001400149086070470000A00030423D
:1047400001490860704700008C05304210B50949E6
:1047500002684A6242688A62CA6A22F0F702D0E9B5
:1047600002342343D0E90440044323431343CB6280
:1047700010BD00000080014006480021016041603A
:104780008160C16041628162C162034A8263C16328
:104790007047000000800140FF07C0000148006929
:1047A000C0B270470080014001460020024A526BAF
:1047B0000A4200D001207047008001400248006892
:1047C00000F00300704700000080014008B5034975
:1047D000084400900098006808BD00001480014063
:1047E00000F0B8BB054A002903D0D16B0143D16367
:1047F0007047D16B8143D163704700000080014056
:1048000030B5094B596847F6FF629143027D8468D1
:10481000C568224344682C4322430468006922434C
:1048200002430A435A6030BD0080014008B54FF48E
:10483000C060FCF713FD31208DF8000000208DF8DA
:1048400001008DF8020001208DF803006846FCF796
:10485000D3FC08BD0148006870470000808001401B
:1048600010B5084902688A60CA686FF30A02D0E985
:1048700001342343D0E90340044323431343CB6073
:1048800010BD00000080014004490A6822F00302C4
:104890000A600A6802430A60704700000080014015
:1048A0000148FCF78DBA00000020001070B58CB0F4
:1048B00005460C461148FCF7E1F9114E002130463F
:1048C000FCF7F4F90F480190029500200390A1082D
:1048D0000491059080210691890007918900089133
:1048E000099089000A910B9001A93046FCF796FACD
:1048F00001213046FCF7DAF90CB070BD00F0001071
:10490000440402408080014070B58CB004460D46DE
:104910001248FCF7B3F9124E00213046FCF7C6F9F5
:1049200010480190029410200390A80804900020E1
:1049300005908021069189000791890008910990CE
:1049400089000A910B9001A93046FCF767FA012112
:104950003046FCF7ABF90CB070BD000000F0001061
:1049600044040240808001402DE9F04101460024CA
:104970001E484068032805D038B1012805D0022818
:1049800003D031E02720BDE8F081B1F5805F0ED083
:104990004FF400670026164D4FF00108B94213D1BD
:1049A0000120FFF74BFE0446200002D01CE0272028
:1049B000E9E785F814802E606E60AE60EF602E61CE
:1049C0000B48FFF71DFF0FE00020FFF737FE0446FE
:1049D000200009D185F814802E606E60AE60EE6014
:1049E0002E610348FFF70CFF2046CCE7F0000020C3
:1049F000483800202DE9F0438D494D6880F84E502D
:104A00000989A0F84C10DFF82C82D8F800100A0EA3
:104A100093090370C2F38303437002F003028270B0
:104A20000A0CC2700A0A02714171D8F80420110EF2
:104A30000901C180C2F30741C38843EA1113C3804F
:104A400001F00F010172C2F30721CB094372C1F3D8
:104A500080138372C1F34013C372C1F30013037355
:104A60004FF0000C80F80DC0434601279E68330EBE
:104A7000C6F30744C6F30729002D04D0012D02D048
:104A8000022D2BD03CE08907090D0161D1B20269EA
:104A900042EA81010161016941EA93110161C3F3B5
:104AA000C201017503F00701417561098175C4F305
:104AB0008201C175A107490F01764946027E42EA8B
:104AC000D112027603695B1C027E921C9340047A29
:104AD00007FA04F282645343436411E09106890AA1
:104AE0000161016941EA0321016101692143016119
:104AF00049460269521CD20442644FF40072826437
:104B00001C30C1F3801200F8032C8906490E00F80E
:104B1000021CF1B210F8022C42EAD11200F8022C69
:104B200001F07F0100F8011CD8F80C20110ECB0910
:104B30000370C1F341134370C1F38203837089078B
:104B4000090FC170C2F30741C37843EA9113C370E0
:104B5000C1F34013037180F805C001F001018171B8
:104B6000C2F30721CB09C371C1F380130372C1F3F0
:104B700040134372C1F300138372C1F38103C37204
:104B800001F003010173D1B2490841738773294AC7
:104B9000103211680B0E03740B0C1B024382C1F31D
:104BA0000723448A1C4344820906416151680B0E65
:104BB000446944EA03434361C1F30743446944EA57
:104BC00003234361C1F3072344691C434461017615
:104BD00091680B0E43760B0C1B06C361C1F30723D0
:104BE000C46944EA0343C361C9B2C36943EA01210A
:104BF000C161D1680A0EC3691343C361C1F307429F
:104C000090F8203043EA121380F820301207120D7A
:104C10004284C1F30722438C13434384C9B2490839
:104C200080F8241080F825706046BDE8F08300000D
:104C3000F0000020C837002008B50020009068462A
:104C400000F080FA08B1FF2008BD0098C0F34320AF
:104C500008BD10B5FFF7F0FF042803D0FF2803D0EC
:104C6000012010BD002010BD022010BD10B5FCF7C2
:104C7000C5F9FFF781FD00F0B5F8002822D100F05A
:104C800025F800281ED1104801210175002101607E
:104C900041608160C1600161FFF7B2FD0A48503890
:104CA000FFF7A8FE30B908485038B0F84C000004AF
:104CB00000F032FA002805D1BDE810404FF4006042
:104CC000FFF752BE10BD0000483800202DE9F84F14
:104CD000002401200090FFF771FDE0B1DFF8FC80B7
:104CE00000263F4DD8F804004FF0C0094FF480670C
:104CF00004282AD02E6002206860C5F80890EE6073
:104D00002F612846FFF7ACFDFBF700FF04462000AB
:104D100003D0BDE8F88F2520FBE70020FFF756FD04
:104D2000DFF8BCA0AAF1880ACAF800000420FFF747
:104D30004DFDCAF804000820FFF748FDCAF8080036
:104D40000C20FFF743FDCAF80C00D8F8040028B186
:104D5000012803D0062801D0022811D12E6003209B
:104D600068604020A860EE602F611D48FFF778FD65
:104D700069460320FBF706FF0446200000D0C8E781
:104D8000D8F80400042826D0BDF80000C8F80800B0
:104D90000004286009206860C5F80890EE602F6163
:104DA0000F48FFF75DFDFBF7B1FE0446200000D081
:104DB000AFE70020FFF70AFD094D983D2860042069
:104DC000FFF704FD68600820FFF700FDA8600C20D5
:104DD000FFF7FCFCE86020469BE70000F0000020A5
:104DE000603800202DE9F05F4FF0000B0024A24650
:104DF00000275548B22101754FF00008C0F8008027
:104E0000C0F80480C0F80880C0F80C80C0F810809A
:104E1000FFF7F6FC0320FFF737FD0120FFF78AFCC0
:104E2000494E1836C6F80080C6F80480C6F80880D7
:104E3000C6F80C804FF48069C6F810903046FFF732
:104E40000FFDFBF73FFE00285FD14FF4D5703060B7
:104E5000082070604025B560C6F80C80C6F8109038
:104E60003046FFF7FDFCFBF7CDFE18B3C6F8008017
:104E700037207060B560C6F80C80C6F810903046D8
:104E8000FFF7EEFC3720FBF733FEC6F80080372033
:104E900070604020B060C6F80C80C6F810902A48B8
:104EA0001830FFF7DDFC3720FBF722FE054628000F
:104EB00034D046E02548012141608F07E5E7C6F878
:104EC0000080372070604025B560C6F80C80C6F8B9
:104ED00010901D481830FFF7C3FC3720FBF708FE81
:104EE000002812D11A483843306029207060B5601C
:104EF000C6F80C80C6F8109013481830FFF7B0FCC5
:104F0000FBF726FE0546280001D0BDE8F09F0020F3
:104F1000FFF75CFC83464FEADB7A641CBAF1000FB2
:104F200003D14FF6FF708442C9D34FF6FF7084421D
:104F300001D31B20E9E71BF0804F02D00348022178
:104F400041602846E1E7000048380020F0000020DA
:104F50000000108070B50E4CE168002001290DD0D2
:104F600020704FF480752846FFF7DEFB00212846AD
:104F7000FFF738FC01202061207870BD054988606A
:104F800040F24C40C8600C20FBF7B2FD2070E8E70F
:104F9000F0000020008001402DE9F04781460E46D8
:104FA00015462748002707700761C7602549CF626B
:104FB0004068022801D10502760A234C25601020A2
:104FC00060604FF04008C4F80880E7604FF4806AE2
:104FD000C4F810A02046FFF743FC1020FBF788FD23
:104FE00000281ED1411E04F114000160456090218B
:104FF00081600221C160076101214161FFF7A6FBC9
:10500000266011206060C4F80880E760C4F810A032
:105010002046FFF725FC1120FBF76AFD044614B17A
:105020002046BDE8F08701210802FFF7DBFB0120E5
:10503000FFF786FB29464846FFF738FC2046F0E795
:10504000F000002000800140603800202DE9FF5F63
:105050000C4615461E462D484FF0000880F800808B
:10506000C0F810804FF00109C0F80C902849C1F831
:105070002C804068022801D10502640A254F3D605A
:10508000102078604FF0400AC7F808A0C7F80C80DD
:105090004FF4806BC7F810B03846FFF7E1FB1020E3
:1050A000FBF726FD002821D1411E07F11400016005
:1050B0006E434660902181600221C160C0F810807B
:1050C000C0F81490FFF742FB3C6012207860C7F8EC
:1050D00008A0C7F80C80C7F810B03846FFF7C0FB2F
:1050E0001220FBF705FD04461CB1204604B0BDE8C4
:1050F000F09F01210802FFF775FB0120FFF720FB5D
:1051000031460098FFF7D2FB2046EFE7F000002081
:10511000008001406038002010B509490860072070
:105120004860402088600020C8604FF480600861BB
:105130000846FFF795FBBDE810400720FBF7D8BCF9
:105140006038002070B505460748084C0089000407
:10515000A06040F24D40E0600D20FBF7C9FC002844
:1051600001D16169296070BDF0000020008001401C
:1051700070B50025074CFFF793FB20B9206910B9E3
:1051800020780028F7D0207808B1207870BD284614
:1051900070BD0000F000002070B50025094CFFF73D
:1051A0007FFB20B9206910B920780028F7D020783B
:1051B00008B1207870BD40F2FF50FFF7AFFA2846E3
:1051C00070BD0000F00000202DE9F04781460E463A
:1051D00015462648002707700761C7602449CF623B
:1051E0004068022801D10502760A224C2560102071
:1051F00060604FF04008C4F80880E7604FF4806AB0
:10520000C4F810A02046FFF72BFB1020FBF770FC22
:10521000002829D1266018206060C4F80880E76063
:10522000C4F810A02046FFF71BFB1820FBF760FC1A
:10523000002819D104F11403401E18605D6090200D
:105240009860DF601F61012058611846FFF77EFA01
:1052500001210802FFF7C6FA29464846FFF754FB2A
:105260000120FFF76DFA3846BDE8F087F000002016
:1052700000800140603800202DE9FF4F81B00E46CC
:1052800015461F464FF00008CDF80080DFF8F89073
:1052900089F80080C9F810800120C9F80C003B484B
:1052A000C0F82C80D9F80400022801D10502760A42
:1052B000374C2560102060604FF0400AC4F808A009
:1052C000C4F80C804FF4806BC4F810B02046FFF790
:1052D000C7FA1020FBF70CFC002851D1B9F80800E0
:1052E0000004206037206060C4F808A0C4F80C8077
:1052F000C4F810B02046FFF7B3FA3720FBF7F8FBED
:1053000000283DD1276017206060C4F808A0C4F8C9
:105310000C80C4F810B02046FFF7A2FA1720FBF764
:10532000E7FB00282CD1266019206060C4F808A093
:10533000C4F80C80C4F810B02046FFF791FA192089
:10534000FBF7D6FB00281BD1401E143420606F43AE
:1053500067609020A060C4F80C80C4F81080012021
:1053600060612046FFF7F2F901210802FFF73AFADF
:105370000120FFF7E5F939460198FFF7C5FA4046E5
:1053800005B0BDE8F08F0000F00000200080014073
:105390006038002010B500F03DF800F077F8FBF71A
:1053A0005AFDBDE8104000F001B8000010B58CB007
:1053B00001210846FFF7C2F8134C2046FBF784FC96
:1053C00000210391A21507920891104A01921048FA
:1053D00002900591802006904FF4A0400490202078
:1053E00009900B9100020A9001A92046FBF716FDD7
:1053F000012206212046FBF707FD01212046FBF78D
:1054000055FC0CB010BD0000440002400C380040B8
:105410008C38002038B501210820FFF7ABF84FF495
:105420000050ADF8000003208DF8020018208DF820
:1054300003000B4C69462046FBF708FE4FF4804101
:10544000ADF8001069462046FBF700FE4FF400411E
:10545000ADF8001069462046FBF7F8FD38BD0000A6
:10546000000C014010B5044800F05BF8C1B2BDE883
:10547000104002A000F0F6BB003800405350493203
:10548000BDD3CAD5B5BDA3BA2563000010B586B09B
:1054900001218803FFF760F80020ADF80400ADF8A3
:1054A0000600ADF80800ADF80A00ADF80C00ADF844
:1054B0000E002821ADF81010ADF812000720ADF84D
:1054C0001400084C01A9204600F02FF801221146D3
:1054D000204600F015F80021204600F005F806B03F
:1054E00010BD000000380040002904D0018841F0C0
:1054F000400101807047018821F040010180704720
:10550000002A03D082880A438280704782888A43B7
:10551000828070470246002012890A4200D0012092
:105520007047808970478181704730B5028802F4E6
:1055300041530A884C88CD8822438C882C432243CF
:105540000C8922434C8922438C892243CC892243F3
:105550001A430280828B22F400628283098A0182CC
:1055600030BD000070B505460A4C02212046FFF709
:10557000D1FF0028F9D029462046FFF7D4FF0121AA
:105580002046FFF7C7FF0028F9D02046FFF7C9FFE4
:10559000C0B270BD00300140704700002DE9F041FD
:1055A00012480126066012484FF420570078002860
:1055B00001D03C4600E000240E4D287828B9022294
:1055C0000DA1114801F0C6FC2E7010480119094BBD
:1055D0003A461B1D0C4801F089FE0B4801F034FED1
:1055E0006968BDE8F0410AA000F03CBB100C014026
:1055F00015000020040100206461746174657374F7
:105600002E64617400000000E00300208C3800204C
:1056100025642062797465732073746F72656421E8
:105620000D0A000030B5ADF5017D0024002002F028
:105630005FF8172817D03DA000F014FB4248202344
:1056400001210288002002F095FD4048404902886F
:10565000002000F07BFF06E00A2C24D0012001F09E
:1056600065F9641CE4B2002002F042F81728F3D177
:1056700038A000F0F7FA01223FA1424801F06AFC8D
:105680000446A4B140A000F0EDFA032C41D0042C54
:1056900043D0052C45D0062C02D142A000F0E2FAFE
:1056A0000DF5017D30BD45A000F0DCFAF8E7464C71
:1056B0004FF4007518E080AB2A466946314801F086
:1056C00001FD8098694682B2002002F06FFB80984D
:1056D000A84206D22B4801F022FC3CA000F0C2FAFE
:1056E000DEE7284801F0B0FD002002F001F817289D
:1056F00002D160780028DED0002001F0F9FF1728E1
:1057000002D03BA000F0AEFA0020607000F0BAFEBC
:10571000C6E73FA000F0A6FAC2E743A000F0A2FA55
:10572000BEE746A000F09EFABAE70000436F6E6E37
:10573000656374696E6720544350207365727665A3
:10574000722E2E2E0D0A000066010020420100205C
:105750005401002053657276657220636F6E6E652A
:10576000637465642C2073656E64696E6720646180
:1057700074612E2E2E0D0A00303A746573742E6AF1
:1057800070670000E00300204661696C6564207466
:105790006F206F70656E20646174612066696C654E
:1057A0003A200000496E76616C69642066696C6518
:1057B000206E616D65210D0A0000000054696D6561
:1057C0006F7574210D0A00000401002044617461AA
:1057D0002066696C65207472616E736D697373699C
:1057E0006F6E20636F6D706C657465210D0A00002B
:1057F000446973636F6E6E65637465642066726F6F
:105800006D2054435020736572766572210D0A0035
:105810004E6F205344206361726420696E73657219
:1058200074210D0A0000000046696C65206E6F74DB
:10583000206578697374210D0A000000496E766155
:105840006C6964207061746821200D0A00000000FA
:10585000AFF300800CB50022019200922748016846
:1058600041F4803101604FF4A063016801F400311C
:1058700000910199491C0191009911B9019999422E
:10588000F3D10168890302D50121009100E0009263
:105890000099012930D11A490A6842F010020A60C1
:1058A0000A6822F003020A600A6842F002020A60F3
:1058B0004168416041684160416841F480614160F4
:1058C000416821F47C114160416841F4E811416074
:1058D000016841F08071016001688901FCD541686F
:1058E00021F003014160416841F0020141604168DB
:1058F000C1F381010229FAD10CBD00000010024061
:105900000020024010B50F48016841F0010101601C
:1059100041680D4A1140416001680C4A1140016024
:10592000016821F480210160416821F4FE01416099
:105930004FF41F018160FFF78BFF05494FF00060B6
:10594000086010BD001002400000FFF8FFFFF6FEE7
:1059500008ED00E010B501218C07204600F00EF89C
:10596000002807D002F016FD2046BDE810400121B6
:1059700000F001B810BDC943018270470246002003
:10598000138A0B4092890A40002B02D0002A00D0D3
:105990000120704710B586B001218803FEF7EAFDAB
:1059A00001210520FEF7E6FD4FF40070ADF814006C
:1059B00018208DF8170003208DF81600194C05A942
:1059C0002046FBF743FB2115ADF8141004218DF898
:1059D000171005A92046FBF739FB134C4FF4E131B2
:1059E00001910021ADF80810ADF80A10ADF80C10C7
:1059F000ADF810100C21ADF80E1001A9204600F0F2
:105A0000B5F8012240F22551204600F094F801211A
:105A1000204600F05DF84021204600F04DF806B029
:105A200010BD0000000801400038014038B5144C9A
:105A300040F225552946204600F056F801281DD190
:105A4000204600F0F1F80F490A78531CDBB20B70C6
:105A50000D498854C81810F8010C0A2804D16A4668
:105A600000210A48FCF7B0F92946204600F043F827
:105A7000002803D02946204600F022F838BD000057
:105A800000380140140000207C010020C8080020DC
:105A900008B54FF4E060FBF7E1FB25208DF800002E
:105AA00001208DF8010000218DF802108DF803000F
:105AB0006846FBF7A1FB08BD8A05C9430180704712
:105AC00040F66A120A0A01219140C94301807047D9
:105AD000002904D0818941F4005181817047818976
